{
  "contractName": "Judicial",
  "abi": [
    {
      "inputs": [],
      "stateMutability": "nonpayable",
      "type": "constructor"
    },
    {
      "inputs": [],
      "name": "isadmin",
      "outputs": [
        {
          "internalType": "bool",
          "name": "",
          "type": "bool"
        }
      ],
      "stateMutability": "view",
      "type": "function",
      "constant": true
    },
    {
      "inputs": [],
      "name": "isPolice",
      "outputs": [
        {
          "internalType": "bool",
          "name": "",
          "type": "bool"
        }
      ],
      "stateMutability": "view",
      "type": "function",
      "constant": true
    },
    {
      "inputs": [],
      "name": "isLawyer",
      "outputs": [
        {
          "internalType": "bool",
          "name": "",
          "type": "bool"
        }
      ],
      "stateMutability": "view",
      "type": "function",
      "constant": true
    },
    {
      "inputs": [],
      "name": "isJudge",
      "outputs": [
        {
          "internalType": "bool",
          "name": "",
          "type": "bool"
        }
      ],
      "stateMutability": "view",
      "type": "function",
      "constant": true
    },
    {
      "inputs": [
        {
          "internalType": "address",
          "name": "judgeaddress",
          "type": "address"
        }
      ],
      "name": "addJudge",
      "outputs": [],
      "stateMutability": "nonpayable",
      "type": "function"
    },
    {
      "inputs": [
        {
          "internalType": "address",
          "name": "lawyeraddress",
          "type": "address"
        }
      ],
      "name": "addLawyer",
      "outputs": [],
      "stateMutability": "nonpayable",
      "type": "function"
    },
    {
      "inputs": [
        {
          "internalType": "address",
          "name": "policeaddress",
          "type": "address"
        }
      ],
      "name": "addPolice",
      "outputs": [],
      "stateMutability": "nonpayable",
      "type": "function"
    },
    {
      "inputs": [
        {
          "internalType": "string",
          "name": "title",
          "type": "string"
        },
        {
          "internalType": "string",
          "name": "description",
          "type": "string"
        },
        {
          "internalType": "string[]",
          "name": "defendents",
          "type": "string[]"
        },
        {
          "internalType": "string[]",
          "name": "plantiffs",
          "type": "string[]"
        }
      ],
      "name": "createCase",
      "outputs": [],
      "stateMutability": "nonpayable",
      "type": "function"
    },
    {
      "inputs": [
        {
          "internalType": "int256",
          "name": "caseno",
          "type": "int256"
        },
        {
          "internalType": "address",
          "name": "lawyeraddress",
          "type": "address"
        }
      ],
      "name": "registerDefendentLawyer",
      "outputs": [],
      "stateMutability": "nonpayable",
      "type": "function"
    },
    {
      "inputs": [
        {
          "internalType": "int256",
          "name": "caseno",
          "type": "int256"
        },
        {
          "internalType": "address",
          "name": "lawyeraddress",
          "type": "address"
        }
      ],
      "name": "registerPlantifflawyer",
      "outputs": [],
      "stateMutability": "nonpayable",
      "type": "function"
    },
    {
      "inputs": [
        {
          "internalType": "int256",
          "name": "caseno",
          "type": "int256"
        },
        {
          "internalType": "string",
          "name": "name",
          "type": "string"
        },
        {
          "internalType": "string",
          "name": "ipfsaddress",
          "type": "string"
        }
      ],
      "name": "uploadEvidence",
      "outputs": [],
      "stateMutability": "nonpayable",
      "type": "function"
    },
    {
      "inputs": [
        {
          "internalType": "int256",
          "name": "caseno",
          "type": "int256"
        },
        {
          "internalType": "string",
          "name": "judgement",
          "type": "string"
        }
      ],
      "name": "closeCase",
      "outputs": [],
      "stateMutability": "nonpayable",
      "type": "function"
    },
    {
      "inputs": [],
      "name": "getTotalCases",
      "outputs": [
        {
          "internalType": "int256",
          "name": "",
          "type": "int256"
        }
      ],
      "stateMutability": "view",
      "type": "function",
      "constant": true
    },
    {
      "inputs": [],
      "name": "getAllCases",
      "outputs": [
        {
          "components": [
            {
              "internalType": "int256",
              "name": "case_no",
              "type": "int256"
            },
            {
              "internalType": "string",
              "name": "title",
              "type": "string"
            },
            {
              "internalType": "string",
              "name": "description",
              "type": "string"
            },
            {
              "internalType": "string[]",
              "name": "defendents",
              "type": "string[]"
            },
            {
              "internalType": "string[]",
              "name": "plantiffs",
              "type": "string[]"
            },
            {
              "internalType": "address",
              "name": "filedby",
              "type": "address"
            },
            {
              "internalType": "address",
              "name": "defendentlawyer",
              "type": "address"
            },
            {
              "internalType": "address",
              "name": "plantiflawyer",
              "type": "address"
            },
            {
              "internalType": "address",
              "name": "hearingjudge",
              "type": "address"
            },
            {
              "internalType": "bool",
              "name": "completed",
              "type": "bool"
            },
            {
              "internalType": "string",
              "name": "judgement",
              "type": "string"
            },
            {
              "internalType": "string[]",
              "name": "evidencename",
              "type": "string[]"
            },
            {
              "internalType": "string[]",
              "name": "ipfsaddress",
              "type": "string[]"
            },
            {
              "internalType": "int256",
              "name": "evidencecount",
              "type": "int256"
            }
          ],
          "internalType": "struct Judicial.JudicialCase[]",
          "name": "",
          "type": "tuple[]"
        }
      ],
      "stateMutability": "view",
      "type": "function",
      "constant": true
    }
  ],
  "bytecode": "0x60806040526000805534801561001457600080fd5b5033600260006101000a81548173ffffffffffffffffffffffffffffffffffffffff021916908373ffffffffffffffffffffffffffffffffffffffff160217905550612518806100656000396000f3fe608060405234801561001057600080fd5b50600436106100ea5760003560e01c80637a90998d1161008c578063aaec486f11610066578063aaec486f1461020f578063d4b4d0bc1461022b578063fb40c22a14610249578063ff8491de14610267576100ea565b80637a90998d146101b75780638a8a0f76146101d5578063927cab47146101f3576100ea565b806345b73610116100c857806345b73610146101455780635a724ef01461016157806369ecab6b1461017d5780637a69b32d14610199576100ea565b80630f2e5950146100ef578063218d7a991461010b5780632e6a311114610129575b600080fd5b61010960048036038101906101049190611881565b610283565b005b610113610376565b60405161012091906118dc565b60405180910390f35b610143600480360381019061013e9190611b23565b610422565b005b61015f600480360381019061015a9190611bfa565b6105e5565b005b61017b60048036038101906101769190611c85565b610709565b005b61019760048036038101906101929190611cb2565b6107ff565b005b6101a161094b565b6040516101ae9190611d1d565b60405180910390f35b6101bf610954565b6040516101cc91906118dc565b60405180910390f35b6101dd6109ac565b6040516101ea91906118dc565b60405180910390f35b61020d60048036038101906102089190611c85565b610a58565b005b61022960048036038101906102249190611881565b610b4e565b005b610233610c41565b60405161024091906118dc565b60405180910390f35b610251610ced565b60405161025e91906120c9565b60405180910390f35b610281600480360381019061027c9190611c85565b6114b3565b005b8160008112158015610296575060005481125b6102d5576040517f08c379a00000000000000000000000000000000000000000000000000000000081526004016102cc90612148565b60405180910390fd5b6102dd610376565b61031c576040517f08c379a0000000000000000000000000000000000000000000000000000000008152600401610313906121da565b60405180910390fd5b816001600085815260200190815260200160002060060160006101000a81548173ffffffffffffffffffffffffffffffffffffffff021916908373ffffffffffffffffffffffffffffffffffffffff160217905550505050565b6000806000905060005b60058054905081101561041a573373ffffffffffffffffffffffffffffffffffffffff16600582815481106103b8576103b76121fa565b5b9060005260206000200160009054906101000a900473ffffffffffffffffffffffffffffffffffffffff1673ffffffffffffffffffffffffffffffffffffffff1603610407576001915061041a565b808061041290612262565b915050610380565b508091505090565b61042a610c41565b8061043957506104386109ac565b5b806104485750610447610376565b5b610487576040517f08c379a000000000000000000000000000000000000000000000000000000000815260040161047e90612342565b60405180910390fd5b83600160008054815260200190815260200160002060010190805190602001906104b29291906115a9565b5082600160008054815260200190815260200160002060020190805190602001906104de9291906115a9565b50816001600080548152602001908152602001600020600301908051906020019061050a92919061162f565b50806001600080548152602001908152602001600020600401908051906020019061053692919061162f565b5033600160008054815260200190815260200160002060050160006101000a81548173ffffffffffffffffffffffffffffffffffffffff021916908373ffffffffffffffffffffffffffffffffffffffff16021790555060006001600080548152602001908152602001600020600c01819055506000546001600080548152602001908152602001600020600001819055506000808154809291906105da90612362565b919050555050505050565b82600081121580156105f8575060005481125b610637576040517f08c379a000000000000000000000000000000000000000000000000000000000815260040161062e90612148565b60405180910390fd5b60016000858152602001908152602001600020600a01839080600181540180825580915050600190039060005260206000200160009091909190915090805190602001906106869291906115a9565b5060016000858152602001908152602001600020600b01829080600181540180825580915050600190039060005260206000200160009091909190915090805190602001906106d69291906115a9565b5060016000858152602001908152602001600020600c0160008154809291906106fe90612362565b919050555050505050565b600260009054906101000a900473ffffffffffffffffffffffffffffffffffffffff1673ffffffffffffffffffffffffffffffffffffffff163373ffffffffffffffffffffffffffffffffffffffff1614610799576040517f08c379a0000000000000000000000000000000000000000000000000000000008152600401610790906123f6565b60405180910390fd5b6004819080600181540180825580915050600190039060005260206000200160009091909190916101000a81548173ffffffffffffffffffffffffffffffffffffffff021916908373ffffffffffffffffffffffffffffffffffffffff16021790555050565b8160008112158015610812575060005481125b610851576040517f08c379a000000000000000000000000000000000000000000000000000000000815260040161084890612148565b60405180910390fd5b610859610376565b610898576040517f08c379a000000000000000000000000000000000000000000000000000000000815260040161088f90612462565b60405180910390fd5b600180600085815260200190815260200160002060080160146101000a81548160ff021916908315150217905550816001600085815260200190815260200160002060090190805190602001906108f09291906115a9565b50336001600085815260200190815260200160002060080160006101000a81548173ffffffffffffffffffffffffffffffffffffffff021916908373ffffffffffffffffffffffffffffffffffffffff160217905550505050565b60008054905090565b6000600260009054906101000a900473ffffffffffffffffffffffffffffffffffffffff1673ffffffffffffffffffffffffffffffffffffffff163373ffffffffffffffffffffffffffffffffffffffff1614905090565b6000806000905060005b600480549050811015610a50573373ffffffffffffffffffffffffffffffffffffffff16600482815481106109ee576109ed6121fa565b5b9060005260206000200160009054906101000a900473ffffffffffffffffffffffffffffffffffffffff1673ffffffffffffffffffffffffffffffffffffffff1603610a3d5760019150610a50565b8080610a4890612262565b9150506109b6565b508091505090565b600260009054906101000a900473ffffffffffffffffffffffffffffffffffffffff1673ffffffffffffffffffffffffffffffffffffffff163373ffffffffffffffffffffffffffffffffffffffff1614610ae8576040517f08c379a0000000000000000000000000000000000000000000000000000000008152600401610adf906123f6565b60405180910390fd5b6005819080600181540180825580915050600190039060005260206000200160009091909190916101000a81548173ffffffffffffffffffffffffffffffffffffffff021916908373ffffffffffffffffffffffffffffffffffffffff16021790555050565b8160008112158015610b61575060005481125b610ba0576040517f08c379a0000000000000000000000000000000000000000000000000000000008152600401610b9790612148565b60405180910390fd5b610ba8610376565b610be7576040517f08c379a0000000000000000000000000000000000000000000000000000000008152600401610bde906121da565b60405180910390fd5b816001600085815260200190815260200160002060070160006101000a81548173ffffffffffffffffffffffffffffffffffffffff021916908373ffffffffffffffffffffffffffffffffffffffff160217905550505050565b6000806000905060005b600380549050811015610ce5573373ffffffffffffffffffffffffffffffffffffffff1660038281548110610c8357610c826121fa565b5b9060005260206000200160009054906101000a900473ffffffffffffffffffffffffffffffffffffffff1673ffffffffffffffffffffffffffffffffffffffff1603610cd25760019150610ce5565b8080610cdd90612262565b915050610c4b565b508091505090565b6060610cf7610c41565b80610d065750610d056109ac565b5b80610d155750610d14610376565b5b610d54576040517f08c379a0000000000000000000000000000000000000000000000000000000008152600401610d4b90612342565b60405180910390fd5b6000805467ffffffffffffffff811115610d7157610d70611912565b5b604051908082528060200260200182016040528015610daa57816020015b610d9761168f565b815260200190600190039081610d8f5790505b50905060005b6000548112156114ab5760016000828152602001908152602001600020604051806101c001604052908160008201548152602001600182018054610df3906124b1565b80601f0160208091040260200160405190810160405280929190818152602001828054610e1f906124b1565b8015610e6c5780601f10610e4157610100808354040283529160200191610e6c565b820191906000526020600020905b815481529060010190602001808311610e4f57829003601f168201915b50505050508152602001600282018054610e85906124b1565b80601f0160208091040260200160405190810160405280929190818152602001828054610eb1906124b1565b8015610efe5780601f10610ed357610100808354040283529160200191610efe565b820191906000526020600020905b815481529060010190602001808311610ee157829003601f168201915b5050505050815260200160038201805480602002602001604051908101604052809291908181526020016000905b82821015610fd8578382906000526020600020018054610f4b906124b1565b80601f0160208091040260200160405190810160405280929190818152602001828054610f77906124b1565b8015610fc45780601f10610f9957610100808354040283529160200191610fc4565b820191906000526020600020905b815481529060010190602001808311610fa757829003601f168201915b505050505081526020019060010190610f2c565b50505050815260200160048201805480602002602001604051908101604052809291908181526020016000905b828210156110b1578382906000526020600020018054611024906124b1565b80601f0160208091040260200160405190810160405280929190818152602001828054611050906124b1565b801561109d5780601f106110725761010080835404028352916020019161109d565b820191906000526020600020905b81548152906001019060200180831161108057829003601f168201915b505050505081526020019060010190611005565b5050505081526020016005820160009054906101000a900473ffffffffffffffffffffffffffffffffffffffff1673ffffffffffffffffffffffffffffffffffffffff1673ffffffffffffffffffffffffffffffffffffffff1681526020016006820160009054906101000a900473ffffffffffffffffffffffffffffffffffffffff1673ffffffffffffffffffffffffffffffffffffffff1673ffffffffffffffffffffffffffffffffffffffff1681526020016007820160009054906101000a900473ffffffffffffffffffffffffffffffffffffffff1673ffffffffffffffffffffffffffffffffffffffff1673ffffffffffffffffffffffffffffffffffffffff1681526020016008820160009054906101000a900473ffffffffffffffffffffffffffffffffffffffff1673ffffffffffffffffffffffffffffffffffffffff1673ffffffffffffffffffffffffffffffffffffffff1681526020016008820160149054906101000a900460ff1615151515815260200160098201805461123c906124b1565b80601f0160208091040260200160405190810160405280929190818152602001828054611268906124b1565b80156112b55780601f1061128a576101008083540402835291602001916112b5565b820191906000526020600020905b81548152906001019060200180831161129857829003601f168201915b50505050508152602001600a8201805480602002602001604051908101604052809291908181526020016000905b8282101561138f578382906000526020600020018054611302906124b1565b80601f016020809104026020016040519081016040528092919081815260200182805461132e906124b1565b801561137b5780601f106113505761010080835404028352916020019161137b565b820191906000526020600020905b81548152906001019060200180831161135e57829003601f168201915b5050505050815260200190600101906112e3565b505050508152602001600b8201805480602002602001604051908101604052809291908181526020016000905b828210156114685783829060005260206000200180546113db906124b1565b80601f0160208091040260200160405190810160405280929190818152602001828054611407906124b1565b80156114545780601f1061142957610100808354040283529160200191611454565b820191906000526020600020905b81548152906001019060200180831161143757829003601f168201915b5050505050815260200190600101906113bc565b505050508152602001600c8201548152505082828151811061148d5761148c6121fa565b5b602002602001018190525080806114a390612362565b915050610db0565b508091505090565b600260009054906101000a900473ffffffffffffffffffffffffffffffffffffffff1673ffffffffffffffffffffffffffffffffffffffff163373ffffffffffffffffffffffffffffffffffffffff1614611543576040517f08c379a000000000000000000000000000000000000000000000000000000000815260040161153a906123f6565b60405180910390fd5b6003819080600181540180825580915050600190039060005260206000200160009091909190916101000a81548173ffffffffffffffffffffffffffffffffffffffff021916908373ffffffffffffffffffffffffffffffffffffffff16021790555050565b8280546115b5906124b1565b90600052602060002090601f0160209004810192826115d7576000855561161e565b82601f106115f057805160ff191683800117855561161e565b8280016001018555821561161e579182015b8281111561161d578251825591602001919060010190611602565b5b50905061162b9190611758565b5090565b82805482825590600052602060002090810192821561167e579160200282015b8281111561167d57825182908051906020019061166d9291906115a9565b509160200191906001019061164f565b5b50905061168b9190611775565b5090565b604051806101c001604052806000815260200160608152602001606081526020016060815260200160608152602001600073ffffffffffffffffffffffffffffffffffffffff168152602001600073ffffffffffffffffffffffffffffffffffffffff168152602001600073ffffffffffffffffffffffffffffffffffffffff168152602001600073ffffffffffffffffffffffffffffffffffffffff168152602001600015158152602001606081526020016060815260200160608152602001600081525090565b5b80821115611771576000816000905550600101611759565b5090565b5b80821115611795576000818161178c9190611799565b50600101611776565b5090565b5080546117a5906124b1565b6000825580601f106117b757506117d6565b601f0160209004906000526020600020908101906117d59190611758565b5b50565b6000604051905090565b600080fd5b600080fd5b6000819050919050565b611800816117ed565b811461180b57600080fd5b50565b60008135905061181d816117f7565b92915050565b600073ffffffffffffffffffffffffffffffffffffffff82169050919050565b600061184e82611823565b9050919050565b61185e81611843565b811461186957600080fd5b50565b60008135905061187b81611855565b92915050565b60008060408385031215611898576118976117e3565b5b60006118a68582860161180e565b92505060206118b78582860161186c565b9150509250929050565b60008115159050919050565b6118d6816118c1565b82525050565b60006020820190506118f160008301846118cd565b92915050565b600080fd5b600080fd5b6000601f19601f8301169050919050565b7f4e487b7100000000000000000000000000000000000000000000000000000000600052604160045260246000fd5b61194a82611901565b810181811067ffffffffffffffff8211171561196957611968611912565b5b80604052505050565b600061197c6117d9565b90506119888282611941565b919050565b600067ffffffffffffffff8211156119a8576119a7611912565b5b6119b182611901565b9050602081019050919050565b82818337600083830152505050565b60006119e06119db8461198d565b611972565b9050828152602081018484840111156119fc576119fb6118fc565b5b611a078482856119be565b509392505050565b600082601f830112611a2457611a236118f7565b5b8135611a348482602086016119cd565b91505092915050565b600067ffffffffffffffff821115611a5857611a57611912565b5b602082029050602081019050919050565b600080fd5b6000611a81611a7c84611a3d565b611972565b90508083825260208201905060208402830185811115611aa457611aa3611a69565b5b835b81811015611aeb57803567ffffffffffffffff811115611ac957611ac86118f7565b5b808601611ad68982611a0f565b85526020850194505050602081019050611aa6565b5050509392505050565b600082601f830112611b0a57611b096118f7565b5b8135611b1a848260208601611a6e565b91505092915050565b60008060008060808587031215611b3d57611b3c6117e3565b5b600085013567ffffffffffffffff811115611b5b57611b5a6117e8565b5b611b6787828801611a0f565b945050602085013567ffffffffffffffff811115611b8857611b876117e8565b5b611b9487828801611a0f565b935050604085013567ffffffffffffffff811115611bb557611bb46117e8565b5b611bc187828801611af5565b925050606085013567ffffffffffffffff811115611be257611be16117e8565b5b611bee87828801611af5565b91505092959194509250565b600080600060608486031215611c1357611c126117e3565b5b6000611c218682870161180e565b935050602084013567ffffffffffffffff811115611c4257611c416117e8565b5b611c4e86828701611a0f565b925050604084013567ffffffffffffffff811115611c6f57611c6e6117e8565b5b611c7b86828701611a0f565b9150509250925092565b600060208284031215611c9b57611c9a6117e3565b5b6000611ca98482850161186c565b91505092915050565b60008060408385031215611cc957611cc86117e3565b5b6000611cd78582860161180e565b925050602083013567ffffffffffffffff811115611cf857611cf76117e8565b5b611d0485828601611a0f565b9150509250929050565b611d17816117ed565b82525050565b6000602082019050611d326000830184611d0e565b92915050565b600081519050919050565b600082825260208201905092915050565b6000819050602082019050919050565b611d6d816117ed565b82525050565b600081519050919050565b600082825260208201905092915050565b60005b83811015611dad578082015181840152602081019050611d92565b83811115611dbc576000848401525b50505050565b6000611dcd82611d73565b611dd78185611d7e565b9350611de7818560208601611d8f565b611df081611901565b840191505092915050565b600081519050919050565b600082825260208201905092915050565b6000819050602082019050919050565b6000611e338383611dc2565b905092915050565b6000602082019050919050565b6000611e5382611dfb565b611e5d8185611e06565b935083602082028501611e6f85611e17565b8060005b85811015611eab5784840389528151611e8c8582611e27565b9450611e9783611e3b565b925060208a01995050600181019050611e73565b50829750879550505050505092915050565b611ec681611843565b82525050565b611ed5816118c1565b82525050565b60006101c083016000830151611ef46000860182611d64565b5060208301518482036020860152611f0c8282611dc2565b91505060408301518482036040860152611f268282611dc2565b91505060608301518482036060860152611f408282611e48565b91505060808301518482036080860152611f5a8282611e48565b91505060a0830151611f6f60a0860182611ebd565b5060c0830151611f8260c0860182611ebd565b5060e0830151611f9560e0860182611ebd565b50610100830151611faa610100860182611ebd565b50610120830151611fbf610120860182611ecc565b50610140830151848203610140860152611fd98282611dc2565b915050610160830151848203610160860152611ff58282611e48565b9150506101808301518482036101808601526120118282611e48565b9150506101a08301516120286101a0860182611d64565b508091505092915050565b600061203f8383611edb565b905092915050565b6000602082019050919050565b600061205f82611d38565b6120698185611d43565b93508360208202850161207b85611d54565b8060005b858110156120b757848403895281516120988582612033565b94506120a383612047565b925060208a0199505060018101905061207f565b50829750879550505050505092915050565b600060208201905081810360008301526120e38184612054565b905092915050565b600082825260208201905092915050565b7f496e76616c69642063617365206e756d62657200000000000000000000000000600082015250565b60006121326013836120eb565b915061213d826120fc565b602082019050919050565b6000602082019050818103600083015261216181612125565b9050919050565b7f4f6e6c7920636f7572742063616e2072656769737465722061206c617779657260008201527f20666f7220636173650000000000000000000000000000000000000000000000602082015250565b60006121c46029836120eb565b91506121cf82612168565b604082019050919050565b600060208201905081810360008301526121f3816121b7565b9050919050565b7f4e487b7100000000000000000000000000000000000000000000000000000000600052603260045260246000fd5b7f4e487b7100000000000000000000000000000000000000000000000000000000600052601160045260246000fd5b6000819050919050565b600061226d82612258565b91507fffffffffffffffffffffffffffffffffffffffffffffffffffffffffffffffff820361229f5761229e612229565b5b600182019050919050565b7f596f7520617265206e6f74207065726d6974746564200a204f6e6c7920506f6c60008201527f6963652c4c61777965722c4a756467652063616e2066696c6520636173652f7660208201527f6965772063617365000000000000000000000000000000000000000000000000604082015250565b600061232c6048836120eb565b9150612337826122aa565b606082019050919050565b6000602082019050818103600083015261235b8161231f565b9050919050565b600061236d826117ed565b91507f7fffffffffffffffffffffffffffffffffffffffffffffffffffffffffffffff820361239f5761239e612229565b5b600182019050919050565b7f5468697320697320612061646d696e2070726576696c65646765000000000000600082015250565b60006123e0601a836120eb565b91506123eb826123aa565b602082019050919050565b6000602082019050818103600083015261240f816123d3565b9050919050565b7f4f6e6c79206a756467652063616e2063617365207468652066696c6500000000600082015250565b600061244c601c836120eb565b915061245782612416565b602082019050919050565b6000602082019050818103600083015261247b8161243f565b9050919050565b7f4e487b7100000000000000000000000000000000000000000000000000000000600052602260045260246000fd5b600060028204905060018216806124c957607f821691505b6020821081036124dc576124db612482565b5b5091905056fea26469706673582212206a93ff83f70692422120bcdf54d513d038643e76fe8314fc7aaee91feba0e02464736f6c634300080e0033",
  "immutableReferences": {},
  "source": "// SPDX-License-Identifier: MIT\r\npragma solidity ^0.8.0;\r\npragma experimental ABIEncoderV2;\r\n\r\ncontract Judicial {\r\n    int256 casecount = 0;\r\n\r\n    struct JudicialCase {\r\n        int256 case_no;\r\n        string title;\r\n        string description;\r\n        string[] defendents;\r\n        string[] plantiffs;\r\n        address filedby;\r\n        //assigned by judge\r\n        address defendentlawyer;\r\n        address plantiflawyer;\r\n        address hearingjudge;\r\n        //after the judgement\r\n        bool completed;\r\n        string judgement;\r\n        //can be filled by anyone\r\n        string[] evidencename;\r\n        string[] ipfsaddress;\r\n        int256 evidencecount;\r\n    }\r\n\r\n    mapping(int256 => JudicialCase) private cases;\r\n    address admin;\r\n\r\n    constructor() {\r\n        admin = msg.sender;\r\n    }\r\n\r\n    address[] polices;\r\n    address[] lawyers;\r\n    address[] judges;\r\n\r\n    function isadmin() public view returns (bool) {\r\n        return msg.sender == admin;\r\n    }\r\n\r\n    function isPolice() public view returns (bool) {\r\n        bool found = false;\r\n        for (uint256 index = 0; index < polices.length; index++) {\r\n            if (polices[index] == msg.sender) {\r\n                found = true;\r\n                break;\r\n            }\r\n        }\r\n        return found;\r\n    }\r\n\r\n    function isLawyer() public view returns (bool) {\r\n        bool found = false;\r\n        for (uint256 index = 0; index < lawyers.length; index++) {\r\n            if (lawyers[index] == msg.sender) {\r\n                found = true;\r\n                break;\r\n            }\r\n        }\r\n        return found;\r\n    }\r\n\r\n    function isJudge() public view returns (bool) {\r\n        bool found = false;\r\n        for (uint256 index = 0; index < judges.length; index++) {\r\n            if (judges[index] == msg.sender) {\r\n                found = true;\r\n                break;\r\n            }\r\n        }\r\n        return found;\r\n    }\r\n\r\n    modifier isAdmin() {\r\n        require(msg.sender == admin, \"This is a admin previledge\");\r\n        _;\r\n    }\r\n\r\n    modifier caseExists(int256 caseno) {\r\n        require(caseno >= 0 && caseno < casecount, \"Invalid case number\");\r\n        _;\r\n    }\r\n\r\n    modifier canCaseFile() {\r\n        require(\r\n            isPolice() || isLawyer() || isJudge(),\r\n            \"You are not permitted \\n Only Police,Lawyer,Judge can file case/view case\"\r\n        );\r\n        _;\r\n    }\r\n\r\n    function addJudge(address judgeaddress) public isAdmin {\r\n        judges.push(judgeaddress);\r\n    }\r\n\r\n    function addLawyer(address lawyeraddress) public isAdmin {\r\n        lawyers.push(lawyeraddress);\r\n    }\r\n\r\n    function addPolice(address policeaddress) public isAdmin {\r\n        polices.push(policeaddress);\r\n    }\r\n\r\n    function createCase(\r\n        string memory title,\r\n        string memory description,\r\n        string[] memory defendents,\r\n        string[] memory plantiffs\r\n    ) public canCaseFile {\r\n        cases[casecount].title = title;\r\n        cases[casecount].description = description;\r\n        cases[casecount].defendents = defendents;\r\n        cases[casecount].plantiffs = plantiffs;\r\n        cases[casecount].filedby = msg.sender;\r\n        cases[casecount].evidencecount = 0;\r\n        cases[casecount].case_no = casecount;\r\n        casecount++;\r\n    }\r\n\r\n    function registerDefendentLawyer(int256 caseno, address lawyeraddress)\r\n        public\r\n        caseExists(caseno)\r\n    {\r\n        require(isJudge(), \"Only court can register a lawyer for case\");\r\n        cases[caseno].defendentlawyer = lawyeraddress;\r\n    }\r\n\r\n    function registerPlantifflawyer(int256 caseno, address lawyeraddress)\r\n        public\r\n        caseExists(caseno)\r\n    {\r\n        require(isJudge(), \"Only court can register a lawyer for case\");\r\n        cases[caseno].plantiflawyer = lawyeraddress;\r\n    }\r\n\r\n    function uploadEvidence(\r\n        int256 caseno,\r\n        string memory name,\r\n        string memory ipfsaddress\r\n    ) public caseExists(caseno) {\r\n        cases[caseno].evidencename.push(name);\r\n        cases[caseno].ipfsaddress.push(ipfsaddress);\r\n        cases[caseno].evidencecount++;\r\n        // cases[caseno].evidencename[uint256(cases[caseno].evidencecount)] = name;\r\n        // cases[caseno].ipfsaddress[\r\n        //     uint256(cases[caseno].evidencecount)\r\n        // ] = ipfsaddress;\r\n    }\r\n\r\n    function closeCase(int256 caseno, string memory judgement)\r\n        public\r\n        caseExists(caseno)\r\n    {\r\n        require(isJudge(), \"Only judge can case the file\");\r\n        cases[caseno].completed = true;\r\n        cases[caseno].judgement = judgement;\r\n        cases[caseno].hearingjudge = msg.sender;\r\n    }\r\n\r\n    function getTotalCases() public view returns (int256) {\r\n        return casecount;\r\n    }\r\n\r\n    // function getCasedetails(int256 caseno)\r\n    //     public\r\n    //     view\r\n    //     canCaseFile\r\n    //     returns (\r\n    //         string memory title,\r\n    //         string memory description,\r\n    //         string[] memory defendents,\r\n    //         string[] memory plantiffs,\r\n    //         address filedby\r\n    //     )\r\n    // {\r\n    //     return (\r\n    //         cases[caseno].title,\r\n    //         cases[caseno].description,\r\n    //         cases[caseno].defendents,\r\n    //         cases[caseno].plantiffs,\r\n    //         cases[caseno].filedby\r\n    //     );\r\n    // }\r\n\r\n    // function getCompleteCasedetails(int256 caseno)\r\n    //     public\r\n    //     view\r\n    //     canCaseFile\r\n    //     returns (\r\n    //         address defendentlawyer,\r\n    //         address plantiflawyer,\r\n    //         string[] memory ev_name,\r\n    //         address[] memory ipfsaddress,\r\n    //         bool completed,\r\n    //         string memory judgement\r\n    //     )\r\n    // {\r\n    //     return (\r\n    //         cases[caseno].defendentlawyer,\r\n    //         cases[caseno].plantiflawyer,\r\n    //         cases[caseno].evidencename,\r\n    //         cases[caseno].ipfsaddress,\r\n    //         cases[caseno].completed,\r\n    //         cases[caseno].judgement\r\n    //     );\r\n    // }\r\n\r\n    function getAllCases()\r\n        public\r\n        view\r\n        canCaseFile\r\n        returns (JudicialCase[] memory)\r\n    {\r\n        JudicialCase[] memory caseslist = new JudicialCase[](\r\n            uint256(casecount)\r\n        );\r\n\r\n        for (int256 i = 0; i < casecount; i++) {\r\n            caseslist[uint256(i)] = cases[i];\r\n        }\r\n        return caseslist;\r\n    }\r\n}\r\n",
  "sourcePath": "E:\\Windows_Data\\SEM7\\blockchain\\PrivateNetwork\\contracts\\Judicial.sol",
  "compiler": {
    "name": "solc",
    "version": "0.8.14+commit.80d49f37.Emscripten.clang"
  },
  "schemaVersion": "3.4.7",
  "updatedAt": "2022-11-04T03:27:48.459Z",
  "networkType": "ethereum",
  "devdoc": {
    "kind": "dev",
    "methods": {},
    "version": 1
  },
  "userdoc": {
    "kind": "user",
    "methods": {},
    "version": 1
  }
}